:1000000019C033C032C031C030C02FC02EC02DC087
:100010007DC22BC038C129C028C09DC126C025C0C3
:1000200024C023C022C021C020C092C21EC0AAC1C9
:100030001CC01BC011241FBECFEFCDBFDFE3DEBF4E
:100040001EE3A0E0BEE3EEE6F6E002C005900D92EE
:10005000A030B107D9F72FE3A0E0BEE301C01D92A5
:10006000AC3FB207E1F78CD000C3CACF39D20895B4
:10007000CF92DF92EF92FF92CF93DF9381E0809354
:10008000080680910B0680FFFCCFC0E0D6E02889EF
:100090003989A8E6B1E0DDD229EF33E040E050E055
:1000A000B6D288899989A0E0B0E0C090C23FD090D4
:1000B000C33FE090C43FF090C53FC816D906EA069A
:1000C000FB0670F48091100690911106A0E0B0E05C
:1000D0008093C23F9093C33FA093C43FB093C53F6A
:1000E000CA01B901DF91CF91FF90EF90DF90CF90DF
:1000F0000895E0EAF0E080818360808381818160FF
:100100008183A0E8B6E081E48C938FEF11968C9305
:1001100080E8809302048081806380838181826093
:100120008183E0E0F6E0808180838081826080834B
:1001300082818365828381E0868B87E086838081EC
:10014000816080830895E0E0FAE0808185608083AB
:1001500081818161818387E893E186A397A382856A
:10016000806182870895E0E4FAE080818560808381
:1001700085818160858388EA91E6848795870895E3
:1001800075DFE0E2F4E081818B628183DCDFEBDF0D
:10019000B0DF789484E991E1A0E0B0E080930C3E78
:1001A00090930D3EA0930E3EB0930F3E8091103E73
:1001B0009091113E892BD1F380E28093250458DF82
:1001C0006093B63F7093B73F8093B83F9093B93F29
:1001D000653C710581059105C8F081E090E0A0E0E3
:1001E000B0E08093BA3F9093BB3FA093BC3FB093E5
:1001F000BD3F84E293E1A0E0B0E080930C3E909399
:100200000D3EA0930E3EB0930F3E22C0603C7105A0
:1002100081059105A8F41092BA3F1092BB3F10924D
:10022000BC3F1092BD3F84E293E1A0E0B0E0809338
:100230000C3E90930D3EA0930E3EB0930F3E08C02F
:1002400010920C3E10920D3E10920E3E10920F3EF8
:100250008091003E9091013EA091023EB091033EFC
:100260000196A11DB11D8093003E9093013EA09385
:10027000023EB093033E80E2809326041092103E2B
:100280001092113E93CF1F920F920FB60F9211242E
:100290004F935F936F937F938F939F93AF93BF938E
:1002A000EF93FF93E0E0FAE080E1838780910C3EDA
:1002B00090910D3E80A791A74091BA3F5091BB3FCE
:1002C0006091BC3F7091BD3F8091163E9091173E6A
:1002D000A091183EB091193E481759076A077B074D
:1002E000D9F080818E7F80838091BA3F9091BB3F0F
:1002F000A091BC3FB091BD3F892B8A2B8B2B21F065
:1003000082E08093250403C082E080932604E0E02D
:10031000FAE08081816080838091BA3F9091BB3FF9
:10032000A091BC3FB091BD3F8093163E9093173E85
:10033000A093183EB093193EFF91EF91BF91AF91FA
:100340009F918F917F916F915F914F910F900FBE11
:100350000F901F9018951F920F920FB60F921124B5
:100360008F939F9381E08093460A81E090E0809391
:10037000103E9093113E9F918F910F900FBE0F9062
:100380001F9018951F920F920FB60F9211244F9342
:100390005F936F937F938F939F93AF93BF93EF93ED
:1003A000FF9380E2809325044091C63F5091C73F60
:1003B0006091C83F7091C93F4F5F5F4F6F4F7F4F54
:1003C0004093C63F5093C73F6093C83F7093C93F67
:1003D0008091BE3F9091BF3FA091C03FB091C13F7F
:1003E000481759076A077B0729F4E0E0F8E08581A0
:1003F0008F7D85838091040885FFFCCFFA01EE5E36
:10040000F14C80818093020880E280932604FF9162
:10041000EF91BF91AF919F918F917F916F915F917C
:100420004F910F900FBE0F901F90189580E0089588
:1004300040E168ED81E690E05DD080E0089580E0E5
:10044000089580E008C0E82FF0E0E05FFB4F908166
:10045000986090838F5F8830B0F380E008C0E82F09
:10046000F0E0E05DFB4F9081986090838F5F883073
:10047000B0F380E008C0E82FF0E0E05BFB4F908134
:10048000986090838F5F8830B0F3089584B1877F40
:1004900084B9E3E3F4E08081877F808384B1846062
:1004A00084B985B18B7F85B9A8D0089527D00895E8
:1004B000A2D0089580B18B7F80B9E2E1F4E0808121
:1004C000877F808380B1826080B981B18D7F81B95F
:1004D00080B1886080B981B1877F81B92DD00895BE
:1004E000B0DFA6DFD3DFE2DFE3DFE4DFA8DF22D087
:1004F0009DDF0895FC0164BF40830895E0E0FAE0C9
:1005000085E0818381E0808380E008951F920F92CF
:100510000FB60F9211248F9381E080930B0A809184
:10052000043E8F5F8093043E8F910F900FBE0F901B
:100530001F90189580E00895E0E2F8E081E2808362
:1005400081E08283E5E0FEE3108215821682089541
:100550001F920F920FB60F9211242F933F934F9338
:100560005F936F937F938F939F93AF93BF93EF931B
:10057000FF93E0E2F8E0948180E883838091093E74
:10058000823029F0E091063EF091073E9083E5E04D
:10059000FEE3A181B2819D012F5F3F4F2183328312
:1005A000813019F011969C9101C090E0E5E0FEE3E6
:1005B000838181508383882319F0909324080AC093
:1005C000E5E0FEE383E080830580F681E02D30974F
:1005D00009F00995FF91EF91BF91AF919F918F9194
:1005E0007F916F915F914F913F912F910F900FBE2F
:1005F0000F901F90189580E00895E0E0F8E08DE8F6
:1006000090E28087918780EC868380E00895A1E264
:100610001A2EAA1BBB1BFD010DC0AA1FBB1FEE1F7C
:10062000FF1FA217B307E407F50720F0A21BB30BC7
:10063000E40BF50B661F771F881F991F1A9469F743
:1006400060957095809590959B01AC01BD01CF019F
:100650000895A29FB001B39FC001A39F01D0B29F94
:0E066000700D811D1124911D0895F894FFCF97
:00000001FF
