:1000000019C033C032C031C030C02FC02EC02DC087
:1000100026C22BC0E1C029C028C046C126C025C0C9
:1000200024C023C022C021C020C03BC21EC053C177
:100030001CC01BC011241FBECFEFCDBFDFE3DEBF4E
:100040001EE3A0E0BEE3E4E6F5E002C005900D92F9
:10005000A030B107D9F72FE3A0E0BEE301C01D92A5
:10006000A83EB207E1F74BD07BC2CACFE2D10895D8
:10007000E0EAF0E080818360808381818160818318
:10008000A0E8B6E081E48C938FEF11968C9380E822
:100090008093020480818063808381818260818378
:1000A000E0E0F6E0808180838081826080838281CD
:1000B0008365828381E0868B87E08683808181608F
:1000C00080830895E0E0FAE080818560808381810B
:1000D0008161818387E893E186A397A3828580610C
:1000E00082870895E0E4FAE08081856080838581DD
:1000F0008160858388EA91E6848795870895B6DFD5
:10010000E0E2F4E081818B628183DCDFEBDFB0DF52
:10011000789484E991E1A0E0B0E080930C3E909364
:100120000D3EA0930E3EB0930F3E8091143E9091F1
:10013000153E892BD1F380E2809325048091003E07
:100140009091013EA091023EB091033E843691050C
:10015000A105B10564F441E050E060E070E0409337
:10016000B83F5093B93F6093BA3F7093BB3F853619
:100170009105A105B10544F01092B83F1092B93F26
:100180001092BA3F1092BB3F883C9105A105B10582
:1001900041F41092003E1092013E1092023E1092E5
:1001A000033E8091003E9091013EA091023EB091AD
:1001B000033E0196A11DB11D8093003E9093013E28
:1001C000A093023EB093033E80E2809326041092F7
:1001D000143E1092153EA9CF1F920F920FB60F92A8
:1001E00011244F935F936F937F938F939F93AF935C
:1001F000BF93EF93FF93E0E0FAE080E18387809183
:100200000C3E90910D3E80A791A74091B83F509130
:10021000B93F6091BA3F7091BB3F80911A3E909177
:100220001B3EA0911C3EB0911D3E481759076A071E
:100230007B07D9F080818E7F80838091B83F909139
:10024000B93FA091BA3FB091BB3F892B8A2B8B2B32
:1002500021F082E08093250403C082E0809326048D
:10026000E0E0FAE08081816080838091B83F9091E6
:10027000B93FA091BA3FB091BB3F80931A3E909393
:100280001B3EA0931C3EB0931D3EFF91EF91BF918A
:10029000AF919F918F917F916F915F914F910F904F
:1002A0000FBE0F901F9018951F920F920FB60F92CE
:1002B00011248F939F9381E08093460A81E090E020
:1002C0008093143E9093153E9F918F910F900FBE97
:1002D0000F901F9018951F920F920FB60F92112436
:1002E0004F935F936F937F938F939F93AF93BF933E
:1002F000EF93FF9380E2809325044091C43F509197
:10030000C53F6091C63F7091C73F4F5F5F4F6F4FD2
:100310007F4F4093C43F5093C53F6093C63F709357
:10032000C73F8091BC3F9091BD3FA091BE3FB0912F
:10033000BF3F481759076A077B0729F4E0E0F8E058
:1003400085818F7D85838091040885FFFCCFFA012C
:10035000EA5EF14C80818093020880E2809326045B
:10036000FF91EF91BF91AF919F918F917F916F918D
:100370005F914F910F900FBE0F901F90189580E0E6
:10038000089540E168ED81E690E05DD080E0089559
:1003900080E0089580E008C0E82FF0E0E05FFB4FC8
:1003A0009081986090838F5F8830B0F380E008C0C0
:1003B000E82FF0E0E05DFB4F9081986090838F5FC5
:1003C0008830B0F380E008C0E82FF0E0E05BFB4F3E
:1003D0009081986090838F5F8830B0F3089584B1E6
:1003E000877F84B9E3E3F4E08081877F808384B1F1
:1003F000846084B985B18B7F85B9A8D0089527D052
:100400000895A2D0089580B18B7F80B9E2E1F4E035
:100410008081877F808380B1826080B981B18D7F48
:1004200081B980B1886080B981B1877F81B92DD0D1
:100430000895B0DFA6DFD3DFE2DFE3DFE4DFA8DF8C
:1004400022D09DDF0895FC0164BF40830895E0E061
:10045000FAE085E0818381E0808380E008951F9247
:100460000F920FB60F9211248F9381E080930B0AA5
:100470008091043E8F5F8093043E8F910F900FBE5A
:100480000F901F90189580E00895E0E2F8E081E277
:10049000808381E08283E5E0FEE31082158216828C
:1004A00008951F920F920FB60F9211242F933F932E
:1004B0004F935F936F937F938F939F93AF93BF936C
:1004C000EF93FF93E0E2F8E0948180E883838091EA
:1004D000093E823029F0E091063EF091073E90837C
:1004E000E5E0FEE3A181B2819D012F5F3F4F2183B3
:1004F0003283813019F011969C9101C090E0E5E0C3
:10050000FEE3838181508383882319F0909324082C
:100510000AC0E5E0FEE383E080830580F681E02DFC
:10052000309709F00995FF91EF91BF91AF919F919D
:100530008F917F916F915F914F913F912F910F908C
:100540000FBE0F901F90189580E00895E0E0F8E04E
:100550008DE890E28087918780EC868380E0089523
:04056000F894FFCF3D
:00000001FF
