S017000070656E64756C756D5F6472697665722E73726563B8
S113000019C033C032C031C030C02FC02EC02DC083
S1130010FFC72BC0E9C329C028C069C426C025C0B6
S113002024C023C022C021C020C039C81EC087C438
S11300301CC01BC011241FBECFEFCDBFDFE3DEBF4A
S11300401EE3A0E0BEE3E4E6F4E102C005900D92F5
S1130050A030B107D9F72EE3A0E0BEE301C01D92A2
S1130060A236B207E1F7D6D1FBC9CACFCF93DF934B
S1130070CDB7DEB7A6D70000DF91CF910895CF9317
S1130080DF93CDB7DEB72897CDBFDEBF89839A83D0
S11300906B837C834D835E832F8338878F81988520
S11300A0FC0112821382148215828F819885FC01CF
S11300B0108211828F81988529813A81FC012683DF
S11300C037838F8198852B813C81FC012087318780
S11300D08F8198852D813E81FC01228733878F8112
S11300E09885FC01868197819C012F5F3F4F8FEF9C
S11300F09FE7B9013AD9CB019C018F819885FC0116
S1130100248735878F819885FC01808591850196A8
S11301109C01990F440B550B8FEF9FEFAFEFBFE39B
S1130120BC01CD0157D9DA01C9012F813885F90104
S113013086879787A08BB18B00002896CDBFDEBF42
S1130140DF91CF910895CF93DF93CDB7DEB7689752
S1130150CDBFDEBF8B8B9C8B6D8B7E8B4F8B588F73
S11301602B893C898D899E89A901481B590BCA0199
S113017089839A8389819A81843B910534F08981AA
S11301809A81845B910989839A8389819A818C34C9
S11301909F4F34F489819A818C549F4F89839A8329
S11301A08F89988DFC012485358589819A8128174A
S11301B039072CF48FEF9FE78B839C8323C08F89AF
S11301C0988DFC018485958522273327281B390BBC
S11301D089819A81821793072CF481E090E88B83BC
S11301E09C8310C08F89988DFC0146815781298199
S11301F03A81429FC001439F900D529F900D11245C
S11302008B839C838F89988DFC0122813381448167
S1130210558189819A81092E000CAA0BBB0B820F90
S1130220931FA41FB51F8D879E87AF87B88B8F89B7
S1130230988DFC0126853785408951898D859E8559
S1130240AF85B889281739074A075B07BCF48FEFD5
S11302509FEFAFEFBFE38D839E83AF83B8878F8912
S1130260988DFC0186859785A089B1892F89388D61
S1130270F90182839383A483B58359C08F89988DB0
S1130280FC0186859785A089B18922273327A90196
S1130290281B390B4A0B5B0B8D859E85AF85B8896E
S11302A082179307A407B507F4F481E090E0A0E077
S11302B0B0EC8D839E83AF83B8878F89988DFC01C2
S11302C086859785A089B189B095A09590958195EB
S11302D09F4FAF4FBF4F2F89388DF901828393838E
S11302E0A483B58324C02F89388D8D859E85AF85E1
S11302F0B889F90182839383A483B5838F89988D08
S1130300FC01808591859C01990F440B550B8F89C5
S1130310988DFC0182819381A481B581BC01CD01BA
S113032015D8DC01CB018D839E83AF83B8878F8979
S1130330988DFC01428553858F89988DFC0120811D
S113034031818D899E89281B390B429FC001439FAF
S1130350900D529F900D1124898B9A8B8F89988DC3
S11303602D893E89FC01208331838B819C819C01F2
S1130370990F440B550B8D819E81AF81B885280F51
S1130380391F4A1F5B1F89899A89092E000CAA0B01
S1130390BB0B820F931FA41FB51FBB2324F48158EA
S11303A09F4FAF4FBF4F689416F8B595A795979593
S11303B087951694D1F789879A87AB87BC878985F7
S11303C09A85AB85BC8581159048A105B1054CF093
S11303D08FEF9FE7A0E0B0E089879A87AB87BC875F
S11303E011C089859A85AB85BC8581309048AF4F13
S11303F0BF4F44F481E090E8AFEFBFEF89879A875D
S1130400AB87BC8789859A856896CDBFDEBFDF91AF
S1130410CF910895CF93DF9300D000D0CDB7DEB74E
S113042025DE80E294E020E234E0F90121812B62B0
S1130430FC0121838ED1B7D124D17894D0D0DC01B2
S1130440CB0189839A8320E53EE344EF51E060E0E9
S113045070E088EC90E013DE80910E3E90910F3EA8
S1130460892BD1F380E294E020E2FC012583B7D00C
S1130470DC01CB018093203E9093213E2091203ECD
S11304803091213E89819A8140E55EE3B9015BDECA
S11304908B839C838B819C8199230CF440C01092A4
S11304A0223E1092233E1092243E1092253E2B8130
S11304B03C8144E6429FC001439F900D1124092EC4
S11304C0000CAA0BBB0BBC01CD01B3D6DC01CB01E4
S11304D020E038E34CE955E4BC01CD010ED71816F1
S11304E01CF487E893E116C02B813C8144E6429FCB
S11304F0C001439F900D1124092E000CAA0BBB0BC5
S1130500BC01CD0196D6DC01CB01BC01CD0159D68D
S1130510DC01CB0180930C3E90930D3E43C081E0FF
S113052090E0A0E0B0E08093223E9093233EA0931D
S1130530243EB093253E2B813C814CE94203C0010B
S1130540439F900D1124092E000CAA0BBB0BBC0178
S1130550CD016FD6DC01CB0120E038E34CE955E452
S1130560BC01CD01CAD618161CF487E893E116C065
S11305702B813C814CE94203C001439F900D11241F
S1130580092E000CAA0BBB0BBC01CD0152D6DC0119
S1130590CB01BC01CD0115D6DC01CB0180930C3E0F
S11305A090930D3E8091003E9091013EA091023EB9
S11305B0B091033E0196A11DB11D8093003E90931E
S11305C0013EA093023EB093033E80E294E020E219
S11305D0FC01268310920E3E10920F3E3DCFCF9326
S11305E0DF9300D000D0CDB7DEB780E096E021E005
S11305F0FC012087000080E096E0FC018385882FC1
S113060090E081709927892BB1F380E096E0FC019A
S1130610808991899C0140E050E088E691E0DC010A
S1130620F5D6DC01CB0129EF33E040E050E0BC011A
S1130630CD01AED6DA01C90189839A83AB83BC8329
S113064080E096E0FC018089918920912A3E3091D6
S11306502B3E2817390748F480E096E0FC01808996
S1130660918980932A3E90932B3E89819A81AB8114
S1130670BC81BC01CD012496CDBFDEBFDF91CF91FB
S11306800895CF93DF93CDB7DEB780EA90E020EAF8
S113069030E0F90120812360FC01208380EA90E0AE
S11306A020EA30E0F90121812160FC01218380E806
S11306B096E021E4FC01208380E896E02FEFFC0122
S11306C0218380E094E020E8FC01228380EA90E02A
S11306D020EA30E0F90120812063FC01208380EAD4
S11306E090E020EA30E0F90121812260FC012183BD
S11306F080E096E020E036E0F9012081FC012083CF
S113070080E096E020E036E0F90120812260FC01DF
S1130710208380E096E020E036E0F9012281236521
S1130720FC01228380E096E021E0FC01268B80E03E
S113073096E027E0FC01268380E096E020E036E0A6
S1130740F90120812160FC0120830000DF91CF9119
S11307500895CF93DF93CDB7DEB780E09AE020E031
S11307603AE0F90120812560FC01208380E09AE0D1
S113077020E03AE0F90121812161FC01218380E03C
S11307809AE027E833E1FC0126A337A380E09AE04E
S113079020E03AE0F90122852061FC012287000073
S11307A0DF91CF910895CF93DF93CDB7DEB780E487
S11307B09AE020E43AE0F90120812560FC012083DD
S11307C080E49AE020E43AE0F90125812160FC010B
S11307D0258380E49AE024EC39E0FC012487358702
S11307E00000DF91CF9108951F920F9200903F0077
S11307F00F9211242F933F934F935F938F939F9363
S1130800AF93BF93EF93FF93CF93DF93CDB7DEB74F
S113081080E09AE020E1FC01238780E09AE02091C7
S11308200C3E30910D3EFC0120A731A72091223EC1
S11308303091233E4091243E5091253E8091143EB8
S11308409091153EA091163EB091173E2817390796
S11308504A075B0749F180E09AE020E03AE0F901B9
S113086020812E7FFC0120838091223E9091233EA3
S1130870A091243EB091253E892B8A2B8B2B31F0FD
S113088080E294E022E0FC01258305C080E294E04C
S113089022E0FC01268380E09AE020E03AE0F901BE
S11308A020812160FC0120838091223E9091233E8F
S11308B0A091243EB091253E8093143E9093153E22
S11308C0A093163EB093173E0000DF91CF91FF91A5
S11308D0EF91BF91AF919F918F915F914F913F9114
S11308E02F910F9000923F000F901F9018951F9228
S11308F00F9200903F000F9211242F938F939F9398
S1130900EF93FF93CF93DF93CDB7DEB780E49AE004
S113091021E0FC01268381E090E080930E3E9093D9
S11309200F3E0000DF91CF91FF91EF919F918F9146
S11309302F910F9000923F000F901F9018951F92D7
S11309400F9200903F000F9211242F933F934F93E7
S11309505F938F939F93AF93BF93EF93FF93CF9343
S1130960DF93CDB7DEB780E294E020E2FC0125837B
S113097080912C3E90912D3EA0912E3EB0912F3E21
S11309800196A11DB11D80932C3E90932D3EA09302
S11309902E3EB0932F3E20912C3E30912D3E40911F
S11309A02E3E50912F3E8091263E9091273EA0915D
S11309B0283EB091293E281739074A075B0749F4B6
S11309C080E098E020E038E0F90125812F7DFC01EA
S11309D02583000080E098E0FC018481882F90E06A
S11309E080729927892BB1F320E038E080912C3E66
S11309F090912D3EA0912E3EB0912F3E805F914C60
S1130A00FC018081F901828380E294E020E2FC0110
S1130A1026830000DF91CF91FF91EF91BF91AF91B9
S1130A209F918F915F914F913F912F910F900092E1
S1130A303F000F901F901895CF93DF93CDB7DEB78B
S1130A4080E0DF91CF910895CF93DF9300D01F9280
S1130A50CDB7DEB789839A836B8389819A814B8171
S1130A6068EDC0D200002396CDBFDEBFDF91CF91E9
S1130A700895CF93DF93CDB7DEB760E181E690E0D0
S1130A80E3DF80E0DF91CF910895CF93DF93CDB77B
S1130A90DEB780E0DF91CF910895CF93DF9300D04C
S1130AA000D0CDB7DEB78B836C838B81882F90E029
S1130AB0805F9B4F89839A838C81813059F489812B
S1130AC09A81FC018081282F286089819A81FC0108
S1130AD020830DC08C81882351F489819A81FC0183
S1130AE08081282F277F89819A81FC01208300003F
S1130AF02496CDBFDEBFDF91CF910895CF93DF93CE
S1130B0000D0CDB7DEB789836A838A81882F90E0CD
S1130B1081309105E1F08230910571F1892B09F062
S1130B203BC020E030E080E090E0FC018081682F51
S1130B308981482F50E081E090E002C0880F991F1E
S1130B404A95E2F780958623F901808325C020E049
S1130B5030E080E090E0FC018081682F8981482F9B
S1130B6050E081E090E002C0880F991F4A95E2F7B7
S1130B70862BF901808310C08981882F90E0805FE3
S1130B809B4F2981222F30E0205F3B4FF9012081C8
S1130B902860FC012083000000000F900F90DF917B
S1130BA0CF910895CF93DF9300D0CDB7DEB789837B
S1130BB06A838A818823A9F020E030E080E090E015
S1130BC0FC018181682F8981482F50E081E090E009
S1130BD002C0880F991F4A95E2F7862BF901818399
S1130BE015C020E030E080E090E0FC018181682FB6
S1130BF08981482F50E081E090E002C0880F991F5E
S1130C004A95E2F780958623F901818300000F90CD
S1130C100F90DF91CF910895CF93DF9300D000D050
S1130C20CDB7DEB78B836C838B81882F90E0805D9A
S1130C309B4F89839A838C81813059F489819A816D
S1130C40FC018081282F286089819A81FC012083FE
S1130C500DC08C81882351F489819A81FC018081A3
S1130C60282F277F89819A81FC0120830000249604
S1130C70CDBFDEBFDF91CF910895CF93DF9300D036
S1130C80CDB7DEB789836A838A81882F90E081306B
S1130C909105E1F08230910571F1892B09F03BC097
S1130CA084E090E024E030E0F9012081622F298182
S1130CB0422F50E021E030E002C0220F331F4A955A
S1130CC0E2F720952623FC01208325C084E090E0F0
S1130CD024E030E0F9012081622F2981422F50E085
S1130CE021E030E002C0220F331F4A95E2F7262BA1
S1130CF0FC01208310C08981882F90E0805D9B4F88
S1130D002981222F30E0205D3B4FF90120812860AA
S1130D10FC012083000000000F900F90DF91CF9121
S1130D200895CF93DF9300D0CDB7DEB789836A836C
S1130D308A818823A9F084E090E024E030E0F9017E
S1130D402181622F2981422F50E021E030E002C04E
S1130D50220F331F4A95E2F7262BFC01218315C08D
S1130D6084E090E024E030E0F9012181622F2981C0
S1130D70422F50E021E030E002C0220F331F4A9599
S1130D80E2F720952623FC01218300000F900F90A9
S1130D90DF91CF910895CF93DF931F92CDB7DEB744
S1130DA08983698181E0AADE00000F90DF91CF91F1
S1130DB00895CF93DF931F92CDB7DEB789836981FE
S1130DC081E0F0DE00000F90DF91CF910895CF9382
S1130DD0DF931F92CDB7DEB78983698182E05DDE40
S1130DE000000F90DF91CF910895CF93DF931F926E
S1130DF0CDB7DEB78983698182E080DE00000F9081
S1130E00DF91CF910895CF93DF931F92CDB7DEB7D3
S1130E108983698183E072DE00000F90DF91CF91B6
S1130E200895CF93DF931F92CDB7DEB7898369818D
S1130E3083E0B8DE00000F90DF91CF910895CF9347
S1130E40DF931F92CDB7DEB78983698182E015DF16
S1130E5000000F90DF91CF910895CF93DF931F92FD
S1130E60CDB7DEB78983698182E05BDF00000F9034
S1130E70DF91CF910895CF93DF931F92CDB7DEB763
S1130E808983698183E0C8DE00000F90DF91CF91F0
S1130E900895CF93DF931F92CDB7DEB7898369811D
S1130EA083E0EBDE00000F90DF91CF910895CF93A4
S1130EB0DF9300D01F92CDB7DEB7198212C08981AB
S1130EC0882F90E0805F9B4F2981222F30E0205FA4
S1130ED03B4FF90120812860FC01208389818F5FC9
S1130EE089838981883058F31A8212C08A81882FB5
S1130EF090E0805D9B4F2A81222F30E0205D3B4FA4
S1130F00F90120812860FC0120838A818F5F8A8314
S1130F108A81883058F31B8212C08B81882F90E01D
S1130F20805B9B4F2B81222F30E0205B3B4FF901EC
S1130F3020812860FC0120838B818F5F8B838B81D0
S1130F40883058F300002396CDBFDEBFDF91CF91E8
S1130F500895CF93DF93CDB7DEB780E09ADF80E0CA
S1130F608ADF81E06CDF80E078DF17D10000DF9159
S1130F70CF910895CF93DF93CDB7DEB737D000007C
S1130F80DF91CF910895CF93DF93CDB7DEB7FDD036
S1130F900000DF91CF910895CF93DF93CDB7DEB7F3
S1130FA080E023DF80E013DF81E0F5DE80E001DF15
S1130FB081E029DF80E035DF5AD00000DF91CF9156
S1130FC00895CF93DF93CDB7DEB771DF52DDC1DF74
S1130FD0D1DFD9DFE1DF59DD42D02EDD0000DF9122
S1130FE0CF910895FC0164BF40830895CF93DF93AC
S1130FF0CDB7DEB780E09AE025E0FC01218380E0F4
S11310009AE021E0FC01208380E0DF91CF910895F4
S11310101F920F9200903F000F9211242F938F93F1
S11310209F93EF93FF93CF93DF93CDB7DEB780E029
S11310309AE021E0FC0123878091043E8F5F809336
S1131040043E0000DF91CF91FF91EF919F918F912A
S11310502F910F9000923F000F901F901895CF93FF
S1131060DF93CDB7DEB780E0DF91CF910895CF93C2
S1131070DF93CDB7DEB780E298E021E2FC01208364
S113108080E298E021E0FC0122831092053E109258
S11310900A3E10920B3E0000DF91CF9108951F92FB
S11310A00F9200903F000F9211242F933F934F9380
S11310B05F936F937F938F939F93AF93BF93EF93BC
S11310C0FF93CF93DF9300D0CDB7DEB780E298E0F3
S11310D0FC0184818A83198280E298E020E8FC0183
S11310E023838091093E823039F08091063E9091AD
S11310F0073E2A81FC0120838091063E9091073EA1
S113110001968093063E9093073E8091093E81307C
S113111039F08091063E9091073EFC0180818983DD
S11311208091083E81508093083E8091083E882338
S113113031F080E298E02981FC0124830FC083E030
S11311408093053E80910A3E90910B3E892B31F0AD
S113115080910A3E90910B3EFC01099500000F908E
S11311600F90DF91CF91FF91EF91BF91AF919F913C
S11311708F917F916F915F914F913F912F910F903C
S113118000923F000F901F901895CF93DF93CDB737
S1131190DEB780E0DF91CF910895CF93DF93CDB791
S11311A0DEB780E098E02DE830E2FC01208731874B
S11311B080E098E020ECFC01268380E0DF91CF9171
S11311C008950E94E8086894B1110C947709089571
S11311D00E945C0988F09F5798F0B92F9927B7515E
S11311E0B0F0E1F0660F771F881F991F1AF0BA95C7
S11311F0C9F714C0B13091F00E947609B1E00895A6
S11312000C947609672F782F8827B85F39F0B93F97
S1131210CCF3869577956795B395D9F73EF4909579
S11312208095709561957F4F8F4F9F4F0895E894F7
S113123009C097FB3EF490958095709561957F4F1A
S11312408F4F9F4F9923A9F0F92F96E9BB279395C8
S1131250F695879577956795B795F111F8CFFAF4D8
S1131260BB0F11F460FF1BC06F5F7F4F8F4F9F4F09
S113127016C0882311F096E911C0772321F09EE867
S1131280872F762F05C0662371F096E8862F70E0CD
S113129060E02AF09A95660F771F881FDAF7880FA7
S11312A09695879597F9089557FD9058440F551FC3
S11312B059F05F3F71F04795880F97FB991F61F0D4
S11312C09F3F79F087950895121613061406551F4B
S11312D0F2CF4695F1DF08C0161617061806991FB7
S11312E0F1CF86957105610508940895E894BB27AC
S11312F066277727CB0197F908950E94820908F49D
S11313008FEF0895990F0008550FAA0BE0E8FEEF40
S113131016161706E807F907C0F012161306E407B5
S1131320F50798F0621B730B840B950B39F40A26AE
S113133061F0232B242B252B21F408950A2609F48C
S1131340A140A6958FEF811D811D0895DB018F9328
S11313509F935CD0BF91AF91A29F800D911DA39FDD
S1131360900DB29F900D1124089597FB072E16F44B
S1131370009406D077FD08D053D007FC05D03EF486
S1131380909581959F4F0895709561957F4F08952D
S1131390A1E21A2EAA1BBB1BFD010DC0AA1FBB1F75
S11313A0EE1FFF1FA217B307E407F50720F0A21BE7
S11313B0B30BE40BF50B661F771F881F991F1A9454
S11313C069F760957095809590959B01AC01BD017E
S11313D0CF010895052E97FB16F400940FD057FD06
S11313E005D0D6DF07FC02D046F408C050954095DE
S11313F0309521953F4F4F4F5F4F089590958095BD
S1131400709561957F4F8F4F9F4F08951DD0A59F75
S1131410900DB49F900DA49F800D911D11240895EB
S1131420AA1BBB1B51E107C0AA1FBB1FA617B70706
S113143010F0A61BB70B881F991F5A95A9F7809522
S11314409095BC01CD010895A29FB001B39FC00146
S1131450A39F01D0B29F700D811D1124911D089589
S1071460F894FFCF2A
S9030000FC
